{
  "_format": "hh-sol-artifact-1",
  "contractName": "HelperContract",
  "sourceName": "contracts/HelperContract.sol",
  "abi": [
    {
      "inputs": [
        {
          "internalType": "address payable",
          "name": "_votingSystemAddress",
          "type": "address"
        }
      ],
      "stateMutability": "nonpayable",
      "type": "constructor"
    },
    {
      "inputs": [],
      "name": "donateToVotingSystem",
      "outputs": [],
      "stateMutability": "payable",
      "type": "function"
    },
    {
      "inputs": [],
      "name": "getVotingSystemBalance",
      "outputs": [
        {
          "internalType": "uint256",
          "name": "",
          "type": "uint256"
        }
      ],
      "stateMutability": "view",
      "type": "function"
    },
    {
      "inputs": [],
      "name": "votingSystem",
      "outputs": [
        {
          "internalType": "contract VotingSystem",
          "name": "",
          "type": "address"
        }
      ],
      "stateMutability": "view",
      "type": "function"
    }
  ],
  "bytecode": "0x6080604052348015600f57600080fd5b5060405161033d38038061033d833981016040819052602c916050565b600080546001600160a01b0319166001600160a01b0392909216919091179055607e565b600060208284031215606157600080fd5b81516001600160a01b0381168114607757600080fd5b9392505050565b6102b08061008d6000396000f3fe6080604052600436106100345760003560e01c80635813847714610039578063a4fcfbd814610061578063c88711bb14610099575b600080fd5b34801561004557600080fd5b5061004e6100a3565b6040519081526020015b60405180910390f35b34801561006d57600080fd5b50600054610081906001600160a01b031681565b6040516001600160a01b039091168152602001610058565b6100a1610120565b005b60008060009054906101000a90046001600160a01b03166001600160a01b0316636f9fb98a6040518163ffffffff1660e01b8152600401602060405180830381865afa1580156100f7573d6000803e3d6000fd5b505050506040513d601f19601f8201168201806040525081019061011b9190610232565b905090565b600034116101655760405162461bcd60e51b815260206004820152600d60248201526c09aeae6e840e6cadcc8408aa89609b1b60448201526064015b60405180910390fd5b6000805460408051600481526024810182526020810180516001600160e01b03166376c4634760e11b17905290516001600160a01b039092169134916101aa9161024b565b60006040518083038185875af1925050503d80600081146101e7576040519150601f19603f3d011682016040523d82523d6000602084013e6101ec565b606091505b505090508061022f5760405162461bcd60e51b815260206004820152600f60248201526e111bdb985d1a5bdb8819985a5b1959608a1b604482015260640161015c565b50565b60006020828403121561024457600080fd5b5051919050565b6000825160005b8181101561026c5760208186018101518583015201610252565b50600092019182525091905056fea264697066735822122068bc9794c338462acd79cd9375ca2ae81abbd35057a5d54234a6a72515ec2d5564736f6c634300081c0033",
  "linkReferences": {},
  "deployedLinkReferences": {}
}