{
  "_format": "hh-sol-artifact-1",
  "contractName": "VotingToken",
  "sourceName": "contracts/VotingToken.sol",
  "abi": [
    {
      "inputs": [
        {
          "internalType": "uint256",
          "name": "initialSupply",
          "type": "uint256"
        }
      ],
      "stateMutability": "nonpayable",
      "type": "constructor"
    },
    {
      "inputs": [
        {
          "internalType": "address",
          "name": "spender",
          "type": "address"
        },
        {
          "internalType": "uint256",
          "name": "allowance",
          "type": "uint256"
        },
        {
          "internalType": "uint256",
          "name": "needed",
          "type": "uint256"
        }
      ],
      "name": "ERC20InsufficientAllowance",
      "type": "error"
    },
    {
      "inputs": [
        {
          "internalType": "address",
          "name": "sender",
          "type": "address"
        },
        {
          "internalType": "uint256",
          "name": "balance",
          "type": "uint256"
        },
        {
          "internalType": "uint256",
          "name": "needed",
          "type": "uint256"
        }
      ],
      "name": "ERC20InsufficientBalance",
      "type": "error"
    },
    {
      "inputs": [
        {
          "internalType": "address",
          "name": "approver",
          "type": "address"
        }
      ],
      "name": "ERC20InvalidApprover",
      "type": "error"
    },
    {
      "inputs": [
        {
          "internalType": "address",
          "name": "receiver",
          "type": "address"
        }
      ],
      "name": "ERC20InvalidReceiver",
      "type": "error"
    },
    {
      "inputs": [
        {
          "internalType": "address",
          "name": "sender",
          "type": "address"
        }
      ],
      "name": "ERC20InvalidSender",
      "type": "error"
    },
    {
      "inputs": [
        {
          "internalType": "address",
          "name": "spender",
          "type": "address"
        }
      ],
      "name": "ERC20InvalidSpender",
      "type": "error"
    },
    {
      "anonymous": false,
      "inputs": [
        {
          "indexed": true,
          "internalType": "address",
          "name": "owner",
          "type": "address"
        },
        {
          "indexed": true,
          "internalType": "address",
          "name": "spender",
          "type": "address"
        },
        {
          "indexed": false,
          "internalType": "uint256",
          "name": "value",
          "type": "uint256"
        }
      ],
      "name": "Approval",
      "type": "event"
    },
    {
      "anonymous": false,
      "inputs": [
        {
          "indexed": true,
          "internalType": "address",
          "name": "from",
          "type": "address"
        },
        {
          "indexed": true,
          "internalType": "address",
          "name": "to",
          "type": "address"
        },
        {
          "indexed": false,
          "internalType": "uint256",
          "name": "value",
          "type": "uint256"
        }
      ],
      "name": "Transfer",
      "type": "event"
    },
    {
      "inputs": [],
      "name": "admin",
      "outputs": [
        {
          "internalType": "address",
          "name": "",
          "type": "address"
        }
      ],
      "stateMutability": "view",
      "type": "function"
    },
    {
      "inputs": [
        {
          "internalType": "address",
          "name": "owner",
          "type": "address"
        },
        {
          "internalType": "address",
          "name": "spender",
          "type": "address"
        }
      ],
      "name": "allowance",
      "outputs": [
        {
          "internalType": "uint256",
          "name": "",
          "type": "uint256"
        }
      ],
      "stateMutability": "view",
      "type": "function"
    },
    {
      "inputs": [
        {
          "internalType": "address",
          "name": "spender",
          "type": "address"
        },
        {
          "internalType": "uint256",
          "name": "value",
          "type": "uint256"
        }
      ],
      "name": "approve",
      "outputs": [
        {
          "internalType": "bool",
          "name": "",
          "type": "bool"
        }
      ],
      "stateMutability": "nonpayable",
      "type": "function"
    },
    {
      "inputs": [
        {
          "internalType": "address",
          "name": "account",
          "type": "address"
        }
      ],
      "name": "balanceOf",
      "outputs": [
        {
          "internalType": "uint256",
          "name": "",
          "type": "uint256"
        }
      ],
      "stateMutability": "view",
      "type": "function"
    },
    {
      "inputs": [],
      "name": "decimals",
      "outputs": [
        {
          "internalType": "uint8",
          "name": "",
          "type": "uint8"
        }
      ],
      "stateMutability": "view",
      "type": "function"
    },
    {
      "inputs": [
        {
          "internalType": "address",
          "name": "to",
          "type": "address"
        },
        {
          "internalType": "uint256",
          "name": "amount",
          "type": "uint256"
        }
      ],
      "name": "mint",
      "outputs": [],
      "stateMutability": "nonpayable",
      "type": "function"
    },
    {
      "inputs": [],
      "name": "name",
      "outputs": [
        {
          "internalType": "string",
          "name": "",
          "type": "string"
        }
      ],
      "stateMutability": "view",
      "type": "function"
    },
    {
      "inputs": [],
      "name": "symbol",
      "outputs": [
        {
          "internalType": "string",
          "name": "",
          "type": "string"
        }
      ],
      "stateMutability": "view",
      "type": "function"
    },
    {
      "inputs": [],
      "name": "totalSupply",
      "outputs": [
        {
          "internalType": "uint256",
          "name": "",
          "type": "uint256"
        }
      ],
      "stateMutability": "view",
      "type": "function"
    },
    {
      "inputs": [
        {
          "internalType": "address",
          "name": "to",
          "type": "address"
        },
        {
          "internalType": "uint256",
          "name": "value",
          "type": "uint256"
        }
      ],
      "name": "transfer",
      "outputs": [
        {
          "internalType": "bool",
          "name": "",
          "type": "bool"
        }
      ],
      "stateMutability": "nonpayable",
      "type": "function"
    },
    {
      "inputs": [
        {
          "internalType": "address",
          "name": "from",
          "type": "address"
        },
        {
          "internalType": "address",
          "name": "to",
          "type": "address"
        },
        {
          "internalType": "uint256",
          "name": "value",
          "type": "uint256"
        }
      ],
      "name": "transferFrom",
      "outputs": [
        {
          "internalType": "bool",
          "name": "",
          "type": "bool"
        }
      ],
      "stateMutability": "nonpayable",
      "type": "function"
    }
  ],
  "bytecode": "0x608060405234801561001057600080fd5b50604051610be2380380610be283398101604081905261002f91610220565b6040518060400160405280600b81526020016a2b37ba34b733aa37b5b2b760a91b81525060405180604001604052806004815260200163564f544560e01b815250816003908161007f91906102d8565b50600461008c82826102d8565b50505061009f33826100b760201b60201c565b50600580546001600160a01b031916331790556103bd565b6001600160a01b0382166100e65760405163ec442f0560e01b8152600060048201526024015b60405180910390fd5b6100f2600083836100f6565b5050565b6001600160a01b0383166101215780600260008282546101169190610396565b909155506101939050565b6001600160a01b038316600090815260208190526040902054818110156101745760405163391434e360e21b81526001600160a01b038516600482015260248101829052604481018390526064016100dd565b6001600160a01b03841660009081526020819052604090209082900390555b6001600160a01b0382166101af576002805482900390556101ce565b6001600160a01b03821660009081526020819052604090208054820190555b816001600160a01b0316836001600160a01b03167fddf252ad1be2c89b69c2b068fc378daa952ba7f163c4a11628f55a4df523b3ef8360405161021391815260200190565b60405180910390a3505050565b60006020828403121561023257600080fd5b5051919050565b634e487b7160e01b600052604160045260246000fd5b600181811c9082168061026357607f821691505b60208210810361028357634e487b7160e01b600052602260045260246000fd5b50919050565b601f8211156102d357806000526020600020601f840160051c810160208510156102b05750805b601f840160051c820191505b818110156102d057600081556001016102bc565b50505b505050565b81516001600160401b038111156102f1576102f1610239565b610305816102ff845461024f565b84610289565b6020601f82116001811461033957600083156103215750848201515b600019600385901b1c1916600184901b1784556102d0565b600084815260208120601f198516915b828110156103695787850151825560209485019460019092019101610349565b50848210156103875786840151600019600387901b60f8161c191681555b50505050600190811b01905550565b808201808211156103b757634e487b7160e01b600052601160045260246000fd5b92915050565b610816806103cc6000396000f3fe608060405234801561001057600080fd5b50600436106100a95760003560e01c806340c10f191161007157806340c10f191461012357806370a082311461013857806395d89b4114610161578063a9059cbb14610169578063dd62ed3e1461017c578063f851a440146101b557600080fd5b806306fdde03146100ae578063095ea7b3146100cc57806318160ddd146100ef57806323b872dd14610101578063313ce56714610114575b600080fd5b6100b66101e0565b6040516100c3919061065f565b60405180910390f35b6100df6100da3660046106c9565b610272565b60405190151581526020016100c3565b6002545b6040519081526020016100c3565b6100df61010f3660046106f3565b61028c565b604051601281526020016100c3565b6101366101313660046106c9565b6102b0565b005b6100f3610146366004610730565b6001600160a01b031660009081526020819052604090205490565b6100b661031d565b6100df6101773660046106c9565b61032c565b6100f361018a366004610752565b6001600160a01b03918216600090815260016020908152604080832093909416825291909152205490565b6005546101c8906001600160a01b031681565b6040516001600160a01b0390911681526020016100c3565b6060600380546101ef90610785565b80601f016020809104026020016040519081016040528092919081815260200182805461021b90610785565b80156102685780601f1061023d57610100808354040283529160200191610268565b820191906000526020600020905b81548152906001019060200180831161024b57829003601f168201915b5050505050905090565b60003361028081858561033a565b60019150505b92915050565b60003361029a85828561034c565b6102a58585856103cb565b506001949350505050565b6005546001600160a01b0316331461030f5760405162461bcd60e51b815260206004820152601a60248201527f4f6e6c792061646d696e2063616e206d696e7420746f6b656e7300000000000060448201526064015b60405180910390fd5b610319828261042a565b5050565b6060600480546101ef90610785565b6000336102808185856103cb565b6103478383836001610460565b505050565b6001600160a01b038381166000908152600160209081526040808320938616835292905220546000198110156103c557818110156103b657604051637dc7a0d960e11b81526001600160a01b03841660048201526024810182905260448101839052606401610306565b6103c584848484036000610460565b50505050565b6001600160a01b0383166103f557604051634b637e8f60e11b815260006004820152602401610306565b6001600160a01b03821661041f5760405163ec442f0560e01b815260006004820152602401610306565b610347838383610535565b6001600160a01b0382166104545760405163ec442f0560e01b815260006004820152602401610306565b61031960008383610535565b6001600160a01b03841661048a5760405163e602df0560e01b815260006004820152602401610306565b6001600160a01b0383166104b457604051634a1406b160e11b815260006004820152602401610306565b6001600160a01b03808516600090815260016020908152604080832093871683529290522082905580156103c557826001600160a01b0316846001600160a01b03167f8c5be1e5ebec7d5bd14f71427d1e84f3dd0314c0f7b2291e5b200ac8c7c3b9258460405161052791815260200190565b60405180910390a350505050565b6001600160a01b03831661056057806002600082825461055591906107bf565b909155506105d29050565b6001600160a01b038316600090815260208190526040902054818110156105b35760405163391434e360e21b81526001600160a01b03851660048201526024810182905260448101839052606401610306565b6001600160a01b03841660009081526020819052604090209082900390555b6001600160a01b0382166105ee5760028054829003905561060d565b6001600160a01b03821660009081526020819052604090208054820190555b816001600160a01b0316836001600160a01b03167fddf252ad1be2c89b69c2b068fc378daa952ba7f163c4a11628f55a4df523b3ef8360405161065291815260200190565b60405180910390a3505050565b602081526000825180602084015260005b8181101561068d5760208186018101516040868401015201610670565b506000604082850101526040601f19601f83011684010191505092915050565b80356001600160a01b03811681146106c457600080fd5b919050565b600080604083850312156106dc57600080fd5b6106e5836106ad565b946020939093013593505050565b60008060006060848603121561070857600080fd5b610711846106ad565b925061071f602085016106ad565b929592945050506040919091013590565b60006020828403121561074257600080fd5b61074b826106ad565b9392505050565b6000806040838503121561076557600080fd5b61076e836106ad565b915061077c602084016106ad565b90509250929050565b600181811c9082168061079957607f821691505b6020821081036107b957634e487b7160e01b600052602260045260246000fd5b50919050565b8082018082111561028657634e487b7160e01b600052601160045260246000fdfea2646970667358221220c6bcc23e3664b6c5d7fb7f8ed9167f94bd9a53120e2376ef83ab4c119418ebd564736f6c634300081c0033",
  "linkReferences": {},
  "deployedLinkReferences": {}
}