{
  "_format": "hh-sol-artifact-1",
  "contractName": "VotingSystem",
  "sourceName": "contracts/VotingSystem.sol",
  "abi": [
    {
      "inputs": [
        {
          "internalType": "address",
          "name": "_tokenAddress",
          "type": "address"
        }
      ],
      "stateMutability": "payable",
      "type": "constructor"
    },
    {
      "anonymous": false,
      "inputs": [
        {
          "indexed": true,
          "internalType": "address",
          "name": "donor",
          "type": "address"
        },
        {
          "indexed": false,
          "internalType": "uint256",
          "name": "amount",
          "type": "uint256"
        }
      ],
      "name": "DonationReceived",
      "type": "event"
    },
    {
      "anonymous": false,
      "inputs": [
        {
          "indexed": true,
          "internalType": "address",
          "name": "admin",
          "type": "address"
        },
        {
          "indexed": false,
          "internalType": "uint256",
          "name": "amount",
          "type": "uint256"
        }
      ],
      "name": "FundsWithdrawn",
      "type": "event"
    },
    {
      "anonymous": false,
      "inputs": [
        {
          "indexed": true,
          "internalType": "address",
          "name": "recipient",
          "type": "address"
        },
        {
          "indexed": false,
          "internalType": "uint256",
          "name": "amount",
          "type": "uint256"
        }
      ],
      "name": "TokensWithdrawn",
      "type": "event"
    },
    {
      "anonymous": false,
      "inputs": [
        {
          "indexed": true,
          "internalType": "address",
          "name": "voter",
          "type": "address"
        },
        {
          "indexed": false,
          "internalType": "string",
          "name": "candidate",
          "type": "string"
        }
      ],
      "name": "VoteCasted",
      "type": "event"
    },
    {
      "anonymous": false,
      "inputs": [
        {
          "indexed": true,
          "internalType": "address",
          "name": "voter",
          "type": "address"
        }
      ],
      "name": "VoterRegistered",
      "type": "event"
    },
    {
      "anonymous": false,
      "inputs": [],
      "name": "VotingEnded",
      "type": "event"
    },
    {
      "anonymous": false,
      "inputs": [],
      "name": "VotingStarted",
      "type": "event"
    },
    {
      "stateMutability": "payable",
      "type": "fallback"
    },
    {
      "inputs": [],
      "name": "admin",
      "outputs": [
        {
          "internalType": "address",
          "name": "",
          "type": "address"
        }
      ],
      "stateMutability": "view",
      "type": "function"
    },
    {
      "inputs": [],
      "name": "donate",
      "outputs": [],
      "stateMutability": "payable",
      "type": "function"
    },
    {
      "inputs": [],
      "name": "endVoting",
      "outputs": [],
      "stateMutability": "nonpayable",
      "type": "function"
    },
    {
      "inputs": [],
      "name": "getContractBalance",
      "outputs": [
        {
          "internalType": "uint256",
          "name": "",
          "type": "uint256"
        }
      ],
      "stateMutability": "view",
      "type": "function"
    },
    {
      "inputs": [
        {
          "internalType": "string",
          "name": "candidate",
          "type": "string"
        }
      ],
      "name": "getVotes",
      "outputs": [
        {
          "internalType": "uint256",
          "name": "",
          "type": "uint256"
        }
      ],
      "stateMutability": "view",
      "type": "function"
    },
    {
      "inputs": [
        {
          "internalType": "address",
          "name": "",
          "type": "address"
        }
      ],
      "name": "hasVoted",
      "outputs": [
        {
          "internalType": "bool",
          "name": "",
          "type": "bool"
        }
      ],
      "stateMutability": "view",
      "type": "function"
    },
    {
      "inputs": [
        {
          "internalType": "address",
          "name": "voter",
          "type": "address"
        }
      ],
      "name": "registerVoter",
      "outputs": [],
      "stateMutability": "nonpayable",
      "type": "function"
    },
    {
      "inputs": [],
      "name": "startVoting",
      "outputs": [],
      "stateMutability": "nonpayable",
      "type": "function"
    },
    {
      "inputs": [
        {
          "internalType": "string",
          "name": "candidate",
          "type": "string"
        }
      ],
      "name": "vote",
      "outputs": [],
      "stateMutability": "nonpayable",
      "type": "function"
    },
    {
      "inputs": [
        {
          "internalType": "string",
          "name": "candidate",
          "type": "string"
        }
      ],
      "name": "voteWithEth",
      "outputs": [],
      "stateMutability": "payable",
      "type": "function"
    },
    {
      "inputs": [
        {
          "internalType": "string",
          "name": "",
          "type": "string"
        }
      ],
      "name": "votes",
      "outputs": [
        {
          "internalType": "uint256",
          "name": "",
          "type": "uint256"
        }
      ],
      "stateMutability": "view",
      "type": "function"
    },
    {
      "inputs": [],
      "name": "votingActive",
      "outputs": [
        {
          "internalType": "bool",
          "name": "",
          "type": "bool"
        }
      ],
      "stateMutability": "view",
      "type": "function"
    },
    {
      "inputs": [],
      "name": "votingToken",
      "outputs": [
        {
          "internalType": "contract IERC20",
          "name": "",
          "type": "address"
        }
      ],
      "stateMutability": "view",
      "type": "function"
    },
    {
      "inputs": [],
      "name": "withdrawFunds",
      "outputs": [],
      "stateMutability": "nonpayable",
      "type": "function"
    },
    {
      "inputs": [
        {
          "internalType": "address",
          "name": "recipient",
          "type": "address"
        },
        {
          "internalType": "uint256",
          "name": "amount",
          "type": "uint256"
        }
      ],
      "name": "withdrawTokens",
      "outputs": [],
      "stateMutability": "nonpayable",
      "type": "function"
    },
    {
      "stateMutability": "payable",
      "type": "receive"
    }
  ],
  "bytecode": "0x60806040526040516110643803806110648339810160408190526020916052565b60008054336001600160a01b031991821617909155600180549091166001600160a01b03929092169190911790556080565b600060208284031215606357600080fd5b81516001600160a01b0381168114607957600080fd5b9392505050565b610fd58061008f6000396000f3fe6080604052600436106100ec5760003560e01c8063805265e51161008a578063c3403ddf11610059578063c3403ddf146102c9578063ed88c68e146102de578063f851a440146102e6578063fc36e15b1461030657610117565b8063805265e514610226578063a15a188d14610246578063b034012314610259578063b99ef1fa1461029157610117565b806324600fc3116100c657806324600fc3146101b357806338db6dd3146101c8578063408e2727146101e85780636f9fb98a1461020957610117565b806306b091f91461013757806309eef43e146101595780631ec6b60a1461019e57610117565b36610117576040513481523390600080516020610f80833981519152906020015b60405180910390a2005b6040513481523390600080516020610f808339815191529060200161010d565b34801561014357600080fd5b50610157610152366004610d4e565b610326565b005b34801561016557600080fd5b50610189610174366004610d78565b60036020526000908152604090205460ff1681565b60405190151581526020015b60405180910390f35b3480156101aa57600080fd5b506101576104d2565b3480156101bf57600080fd5b50610157610538565b3480156101d457600080fd5b506101576101e3366004610d78565b610625565b3480156101f457600080fd5b5060005461018990600160a01b900460ff1681565b34801561021557600080fd5b50475b604051908152602001610195565b34801561023257600080fd5b50610218610241366004610db0565b610701565b610157610254366004610db0565b610729565b34801561026557600080fd5b50600154610279906001600160a01b031681565b6040516001600160a01b039091168152602001610195565b34801561029d57600080fd5b506102186102ac366004610db0565b805160208183018101805160028252928201919093012091525481565b3480156102d557600080fd5b50610157610a02565b610157610a62565b3480156102f257600080fd5b50600054610279906001600160a01b031681565b34801561031257600080fd5b50610157610321366004610db0565b610ad7565b6000546001600160a01b031633146103595760405162461bcd60e51b815260040161035090610e69565b60405180910390fd5b6001546040516370a0823160e01b815230600482015282916001600160a01b0316906370a0823190602401602060405180830381865afa1580156103a1573d6000803e3d6000fd5b505050506040513d601f19601f820116820180604052508101906103c59190610eaa565b10156104135760405162461bcd60e51b815260206004820152601d60248201527f4e6f7420656e6f75676820746f6b656e7320696e20636f6e74726163740000006044820152606401610350565b60015460405163a9059cbb60e01b81526001600160a01b038481166004830152602482018490529091169063a9059cbb906044016020604051808303816000875af1158015610466573d6000803e3d6000fd5b505050506040513d601f19601f8201168201806040525081019061048a9190610ec3565b50816001600160a01b03167f6352c5382c4a4578e712449ca65e83cdb392d045dfcf1cad9615189db2da244b826040516104c691815260200190565b60405180910390a25050565b6000546001600160a01b031633146104fc5760405162461bcd60e51b815260040161035090610e69565b6000805460ff60a01b1916600160a01b1781556040517f877e2548498f42b7975a186b94ef1d32c86d420b7b806dd2be2bea293b8959049190a1565b6000546001600160a01b031633146105625760405162461bcd60e51b815260040161035090610e69565b47806105a55760405162461bcd60e51b81526020600482015260126024820152714e6f2066756e647320617661696c61626c6560701b6044820152606401610350565b600080546040516001600160a01b039091169183156108fc02918491818181858888f193505050501580156105de573d6000803e3d6000fd5b506000546040518281526001600160a01b03909116907feaff4b37086828766ad3268786972c0cd24259d4c87a80f9d3963a3c3d999b0d906020015b60405180910390a250565b6000546001600160a01b0316331461064f5760405162461bcd60e51b815260040161035090610e69565b6001600160a01b03811660009081526003602052604090205460ff16156106b85760405162461bcd60e51b815260206004820152601860248201527f566f74657220616c7265616479207265676973746572656400000000000000006044820152606401610350565b6001600160a01b038116600081815260036020526040808220805460ff19169055517fb6be2187d059cc2a55fe29e0e503b566e1e0f8c8780096e185429350acffd3dd9190a250565b60006002826040516107139190610f09565b9081526020016040518091039020549050919050565b600054600160a01b900460ff166107795760405162461bcd60e51b8152602060048201526014602482015273566f74696e67206973206e6f742061637469766560601b6044820152606401610350565b3360009081526003602052604090205460ff16156107d25760405162461bcd60e51b8152602060048201526016602482015275165bdd481a185d9948185b1c9958591e481d9bdd195960521b6044820152606401610350565b6001546040516370a0823160e01b81523360048201526000916001600160a01b0316906370a0823190602401602060405180830381865afa15801561081b573d6000803e3d6000fd5b505050506040513d601f19601f8201168201806040525081019061083f9190610eaa565b1161088c5760405162461bcd60e51b815260206004820152601e60248201527f596f75206e65656420566f74696e67546f6b656e7320746f20766f74652100006044820152606401610350565b34662386f26fc10000146108e25760405162461bcd60e51b815260206004820152601f60248201527f457861637420302e30312045544820726571756972656420746f20766f7465006044820152606401610350565b600180546040516323b872dd60e01b815233600482015230602482015260448101929092526001600160a01b0316906323b872dd906064016020604051808303816000875af1158015610939573d6000803e3d6000fd5b505050506040513d601f19601f8201168201806040525081019061095d9190610ec3565b5060028160405161096e9190610f09565b908152604051908190036020019020805490600061098b83610f25565b90915550503360008181526003602052604090819020805460ff19166001179055517fb7821d50dfbda5ea310faebbeac5217bc1bb0cabe463e76b80e48d11e57df098906109da908490610f4c565b60405180910390a26040513481523390600080516020610f808339815191529060200161061a565b6000546001600160a01b03163314610a2c5760405162461bcd60e51b815260040161035090610e69565b6000805460ff60a01b191681556040517f7a19ed057db79e3c2fa0b97a54b43bef4fce74b31bb6c01af514b9a18a7f70ab9190a1565b60003411610ab25760405162461bcd60e51b815260206004820152601f60248201527f446f6e6174696f6e206d7573742062652067726561746572207468616e2030006044820152606401610350565b6040513481523390600080516020610f808339815191529060200160405180910390a2565b600054600160a01b900460ff16610b275760405162461bcd60e51b8152602060048201526014602482015273566f74696e67206973206e6f742061637469766560601b6044820152606401610350565b3360009081526003602052604090205460ff1615610b805760405162461bcd60e51b8152602060048201526016602482015275165bdd481a185d9948185b1c9958591e481d9bdd195960521b6044820152606401610350565b6001546040516370a0823160e01b81523360048201526000916001600160a01b0316906370a0823190602401602060405180830381865afa158015610bc9573d6000803e3d6000fd5b505050506040513d601f19601f82011682018060405250810190610bed9190610eaa565b11610c3a5760405162461bcd60e51b815260206004820152601e60248201527f596f75206e65656420566f74696e67546f6b656e7320746f20766f74652100006044820152606401610350565b600180546040516323b872dd60e01b815233600482015230602482015260448101929092526001600160a01b0316906323b872dd906064016020604051808303816000875af1158015610c91573d6000803e3d6000fd5b505050506040513d601f19601f82011682018060405250810190610cb59190610ec3565b50600281604051610cc69190610f09565b9081526040519081900360200190208054906000610ce383610f25565b90915550503360008181526003602052604090819020805460ff19166001179055517fb7821d50dfbda5ea310faebbeac5217bc1bb0cabe463e76b80e48d11e57df0989061061a908490610f4c565b80356001600160a01b0381168114610d4957600080fd5b919050565b60008060408385031215610d6157600080fd5b610d6a83610d32565b946020939093013593505050565b600060208284031215610d8a57600080fd5b610d9382610d32565b9392505050565b634e487b7160e01b600052604160045260246000fd5b600060208284031215610dc257600080fd5b813567ffffffffffffffff811115610dd957600080fd5b8201601f81018413610dea57600080fd5b803567ffffffffffffffff811115610e0457610e04610d9a565b604051601f8201601f19908116603f0116810167ffffffffffffffff81118282101715610e3357610e33610d9a565b604052818152828201602001861015610e4b57600080fd5b81602084016020830137600091810160200191909152949350505050565b60208082526021908201527f4f6e6c792061646d696e2063616e2063616c6c20746869732066756e6374696f6040820152603760f91b606082015260800190565b600060208284031215610ebc57600080fd5b5051919050565b600060208284031215610ed557600080fd5b81518015158114610d9357600080fd5b60005b83811015610f00578181015183820152602001610ee8565b50506000910152565b60008251610f1b818460208701610ee5565b9190910192915050565b600060018201610f4557634e487b7160e01b600052601160045260246000fd5b5060010190565b6020815260008251806020840152610f6b816040850160208701610ee5565b601f01601f1916919091016040019291505056fe264f630d9efa0d07053a31163641d9fcc0adafc9d9e76f1c37c2ce3a558d2c52a2646970667358221220b52d998dbb653ae46ab28fcccc8c529dd2518801daac0448d333d6fda32eaeac64736f6c634300081c0033",
  "linkReferences": {},
  "deployedLinkReferences": {}
}